{
  "_format": "hh-sol-artifact-1",
  "contractName": "SelfSovereignIdentity",
  "sourceName": "contracts/SelfSovereignIdentity.sol",
  "abi": [
    {
      "inputs": [
        {
          "internalType": "address",
          "name": "controllerAddress",
          "type": "address"
        }
      ],
      "name": "addCapabilityDelegation",
      "outputs": [],
      "stateMutability": "nonpayable",
      "type": "function"
    },
    {
      "inputs": [
        {
          "internalType": "string",
          "name": "serviceId",
          "type": "string"
        },
        {
          "internalType": "string",
          "name": "serviceType",
          "type": "string"
        },
        {
          "internalType": "string",
          "name": "endpoint",
          "type": "string"
        }
      ],
      "name": "addService",
      "outputs": [],
      "stateMutability": "nonpayable",
      "type": "function"
    },
    {
      "inputs": [
        {
          "internalType": "address",
          "name": "addressToConvert",
          "type": "address"
        }
      ],
      "name": "addressToDid",
      "outputs": [
        {
          "internalType": "string",
          "name": "",
          "type": "string"
        }
      ],
      "stateMutability": "view",
      "type": "function"
    },
    {
      "inputs": [],
      "name": "clear",
      "outputs": [],
      "stateMutability": "nonpayable",
      "type": "function"
    },
    {
      "inputs": [
        {
          "internalType": "address",
          "name": "childAddress",
          "type": "address"
        },
        {
          "internalType": "string",
          "name": "signature",
          "type": "string"
        }
      ],
      "name": "createChildTrustedDid",
      "outputs": [
        {
          "internalType": "string",
          "name": "",
          "type": "string"
        }
      ],
      "stateMutability": "nonpayable",
      "type": "function"
    },
    {
      "inputs": [],
      "name": "createDid",
      "outputs": [
        {
          "internalType": "string",
          "name": "",
          "type": "string"
        }
      ],
      "stateMutability": "nonpayable",
      "type": "function"
    },
    {
      "inputs": [],
      "name": "deactivate",
      "outputs": [],
      "stateMutability": "nonpayable",
      "type": "function"
    },
    {
      "inputs": [
        {
          "internalType": "string",
          "name": "didUrl",
          "type": "string"
        }
      ],
      "name": "getAuthentication",
      "outputs": [
        {
          "components": [
            {
              "internalType": "uint256",
              "name": "index",
              "type": "uint256"
            },
            {
              "internalType": "string",
              "name": "id",
              "type": "string"
            },
            {
              "internalType": "string",
              "name": "methodType",
              "type": "string"
            },
            {
              "internalType": "string",
              "name": "controller",
              "type": "string"
            },
            {
              "internalType": "uint256",
              "name": "chainId",
              "type": "uint256"
            },
            {
              "internalType": "address",
              "name": "blockchainAccountId",
              "type": "address"
            }
          ],
          "internalType": "struct VerificationMethod",
          "name": "",
          "type": "tuple"
        }
      ],
      "stateMutability": "view",
      "type": "function"
    },
    {
      "inputs": [
        {
          "internalType": "string",
          "name": "did",
          "type": "string"
        }
      ],
      "name": "resolve",
      "outputs": [
        {
          "components": [
            {
              "components": [
                {
                  "internalType": "string",
                  "name": "id",
                  "type": "string"
                },
                {
                  "internalType": "bool",
                  "name": "deactivated",
                  "type": "bool"
                },
                {
                  "components": [
                    {
                      "internalType": "uint256",
                      "name": "index",
                      "type": "uint256"
                    },
                    {
                      "internalType": "string",
                      "name": "id",
                      "type": "string"
                    },
                    {
                      "internalType": "string",
                      "name": "methodType",
                      "type": "string"
                    },
                    {
                      "internalType": "string",
                      "name": "controller",
                      "type": "string"
                    },
                    {
                      "internalType": "uint256",
                      "name": "chainId",
                      "type": "uint256"
                    },
                    {
                      "internalType": "address",
                      "name": "blockchainAccountId",
                      "type": "address"
                    }
                  ],
                  "internalType": "struct VerificationMethod[]",
                  "name": "authentication",
                  "type": "tuple[]"
                },
                {
                  "components": [
                    {
                      "internalType": "uint256",
                      "name": "index",
                      "type": "uint256"
                    },
                    {
                      "internalType": "string",
                      "name": "id",
                      "type": "string"
                    },
                    {
                      "internalType": "string",
                      "name": "methodType",
                      "type": "string"
                    },
                    {
                      "internalType": "string",
                      "name": "controller",
                      "type": "string"
                    },
                    {
                      "internalType": "uint256",
                      "name": "chainId",
                      "type": "uint256"
                    },
                    {
                      "internalType": "address",
                      "name": "blockchainAccountId",
                      "type": "address"
                    }
                  ],
                  "internalType": "struct VerificationMethod[]",
                  "name": "capabilityDelegation",
                  "type": "tuple[]"
                },
                {
                  "components": [
                    {
                      "internalType": "string",
                      "name": "id",
                      "type": "string"
                    },
                    {
                      "internalType": "string",
                      "name": "serviceType",
                      "type": "string"
                    },
                    {
                      "internalType": "string",
                      "name": "endpoint",
                      "type": "string"
                    }
                  ],
                  "internalType": "struct Service[]",
                  "name": "service",
                  "type": "tuple[]"
                },
                {
                  "components": [
                    {
                      "internalType": "bool",
                      "name": "valid",
                      "type": "bool"
                    },
                    {
                      "internalType": "string",
                      "name": "parentId",
                      "type": "string"
                    },
                    {
                      "internalType": "string",
                      "name": "signature",
                      "type": "string"
                    }
                  ],
                  "internalType": "struct Parent",
                  "name": "parent",
                  "type": "tuple"
                }
              ],
              "internalType": "struct DidDocument",
              "name": "didDocument",
              "type": "tuple"
            }
          ],
          "internalType": "struct ResolutionResult",
          "name": "",
          "type": "tuple"
        }
      ],
      "stateMutability": "view",
      "type": "function"
    },
    {
      "inputs": [
        {
          "internalType": "string",
          "name": "did",
          "type": "string"
        }
      ],
      "name": "resolveChain",
      "outputs": [
        {
          "components": [
            {
              "internalType": "string[]",
              "name": "userDids",
              "type": "string[]"
            }
          ],
          "internalType": "struct ChainResolutionResult",
          "name": "",
          "type": "tuple"
        }
      ],
      "stateMutability": "view",
      "type": "function"
    }
  ],
  "bytecode": "0x608060405234801561001057600080fd5b5061349d806100206000396000f3fe608060405234801561001057600080fd5b506004361061009e5760003560e01c80639d57197c116100665780639d57197c14610133578063a520f4af14610163578063bdcfeb6414610181578063cae27f8f1461019d578063ce23b744146101cd5761009e565b80633f9b4946146100a3578063461a4478146100bf5780634f5201fd146100ef57806351b42b001461011f57806352efea6e14610129575b600080fd5b6100bd60048036038101906100b89190612315565b6101fd565b005b6100d960048036038101906100d491906123bc565b6102fd565b6040516100e69190612898565b60405180910390f35b610109600480360381019061010491906123bc565b610e09565b60405161011691906129a6565b60405180910390f35b610127610fac565b005b610131610ff0565b005b61014d60048036038101906101489190612a28565b6114b7565b60405161015a9190612b0c565b60405180910390f35b61016b611792565b6040516101789190612b78565b60405180910390f35b61019b60048036038101906101969190612bc6565b6117b2565b005b6101b760048036038101906101b29190612bc6565b6119b9565b6040516101c49190612b78565b60405180910390f35b6101e760048036038101906101e29190612bf3565b6119f4565b6040516101f49190612b78565b60405180910390f35b600080610209336119b9565b6040516102169190612c8b565b9081526020016040518091039020905060405180606001604052808581526020018481526020018381525081600801856040516102539190612c8b565b908152602001604051809103902060008201518160000190816102769190612eae565b50602082015181600101908161028c9190612eae565b5060408201518160020190816102a29190612eae565b5090505080600901849080600181540180825580915050600190039060005260206000200160009091909190915090816102dc9190612eae565b5080600a0160008154809291906102f290612faf565b919050555050505050565b61030561201f565b600080836040516103169190612c8b565b908152602001604051809103902090506000816003018054905067ffffffffffffffff811115610349576103486121ea565b5b60405190808252806020026020018201604052801561038257816020015b61036f612038565b8152602001906001900390816103675790505b5090506000826006018054905067ffffffffffffffff8111156103a8576103a76121ea565b5b6040519080825280602002602001820160405280156103e157816020015b6103ce612038565b8152602001906001900390816103c65790505b5090506000836009018054905067ffffffffffffffff811115610407576104066121ea565b5b60405190808252806020026020018201604052801561044057816020015b61042d612084565b8152602001906001900390816104255790505b50905060005b83518110156106ea578460020185600301828154811061046957610468612ff7565b5b9060005260206000200160405161048091906130a9565b90815260200160405180910390206040518060c0016040529081600082015481526020016001820180546104b390612cd1565b80601f01602080910402602001604051908101604052809291908181526020018280546104df90612cd1565b801561052c5780601f106105015761010080835404028352916020019161052c565b820191906000526020600020905b81548152906001019060200180831161050f57829003601f168201915b5050505050815260200160028201805461054590612cd1565b80601f016020809104026020016040519081016040528092919081815260200182805461057190612cd1565b80156105be5780601f10610593576101008083540402835291602001916105be565b820191906000526020600020905b8154815290600101906020018083116105a157829003601f168201915b505050505081526020016003820180546105d790612cd1565b80601f016020809104026020016040519081016040528092919081815260200182805461060390612cd1565b80156106505780601f1061062557610100808354040283529160200191610650565b820191906000526020600020905b81548152906001019060200180831161063357829003601f168201915b50505050508152602001600482015481526020016005820160009054906101000a900473ffffffffffffffffffffffffffffffffffffffff1673ffffffffffffffffffffffffffffffffffffffff1673ffffffffffffffffffffffffffffffffffffffff16815250508482815181106106cc576106cb612ff7565b5b602002602001018190525080806106e290612faf565b915050610446565b5060005b8251811015610992578460050185600601828154811061071157610710612ff7565b5b9060005260206000200160405161072891906130a9565b90815260200160405180910390206040518060c00160405290816000820154815260200160018201805461075b90612cd1565b80601f016020809104026020016040519081016040528092919081815260200182805461078790612cd1565b80156107d45780601f106107a9576101008083540402835291602001916107d4565b820191906000526020600020905b8154815290600101906020018083116107b757829003601f168201915b505050505081526020016002820180546107ed90612cd1565b80601f016020809104026020016040519081016040528092919081815260200182805461081990612cd1565b80156108665780601f1061083b57610100808354040283529160200191610866565b820191906000526020600020905b81548152906001019060200180831161084957829003601f168201915b5050505050815260200160038201805461087f90612cd1565b80601f01602080910402602001604051908101604052809291908181526020018280546108ab90612cd1565b80156108f85780601f106108cd576101008083540402835291602001916108f8565b820191906000526020600020905b8154815290600101906020018083116108db57829003601f168201915b50505050508152602001600482015481526020016005820160009054906101000a900473ffffffffffffffffffffffffffffffffffffffff1673ffffffffffffffffffffffffffffffffffffffff1673ffffffffffffffffffffffffffffffffffffffff168152505083828151811061097457610973612ff7565b5b6020026020010181905250808061098a90612faf565b9150506106ee565b5060005b8151811015610bd057846008018560090182815481106109b9576109b8612ff7565b5b906000526020600020016040516109d091906130a9565b90815260200160405180910390206040518060600160405290816000820180546109f990612cd1565b80601f0160208091040260200160405190810160405280929190818152602001828054610a2590612cd1565b8015610a725780601f10610a4757610100808354040283529160200191610a72565b820191906000526020600020905b815481529060010190602001808311610a5557829003601f168201915b50505050508152602001600182018054610a8b90612cd1565b80601f0160208091040260200160405190810160405280929190818152602001828054610ab790612cd1565b8015610b045780601f10610ad957610100808354040283529160200191610b04565b820191906000526020600020905b815481529060010190602001808311610ae757829003601f168201915b50505050508152602001600282018054610b1d90612cd1565b80601f0160208091040260200160405190810160405280929190818152602001828054610b4990612cd1565b8015610b965780601f10610b6b57610100808354040283529160200191610b96565b820191906000526020600020905b815481529060010190602001808311610b7957829003601f168201915b505050505081525050828281518110610bb257610bb1612ff7565b5b60200260200101819052508080610bc890612faf565b915050610996565b5060006040518060c00160405280866000018054610bed90612cd1565b80601f0160208091040260200160405190810160405280929190818152602001828054610c1990612cd1565b8015610c665780601f10610c3b57610100808354040283529160200191610c66565b820191906000526020600020905b815481529060010190602001808311610c4957829003601f168201915b505050505081526020018660010160009054906101000a900460ff161515815260200185815260200184815260200183815260200186600b016040518060600160405290816000820160009054906101000a900460ff16151515158152602001600182018054610cd590612cd1565b80601f0160208091040260200160405190810160405280929190818152602001828054610d0190612cd1565b8015610d4e5780601f10610d2357610100808354040283529160200191610d4e565b820191906000526020600020905b815481529060010190602001808311610d3157829003601f168201915b50505050508152602001600282018054610d6790612cd1565b80601f0160208091040260200160405190810160405280929190818152602001828054610d9390612cd1565b8015610de05780601f10610db557610100808354040283529160200191610de0565b820191906000526020600020905b815481529060010190602001808311610dc357829003601f168201915b505050505081525050815250905060405180602001604052808281525095505050505050919050565b610e116120a5565b6000600a67ffffffffffffffff811115610e2e57610e2d6121ea565b5b604051908082528060200260200182016040528015610e6157816020015b6060815260200190600190039081610e4c5790505b50905060008084604051610e759190612c8b565b90815260200160405180910390209050600080600190505b826000018054610e9c90612cd1565b80601f0160208091040260200160405190810160405280929190818152602001828054610ec890612cd1565b8015610f155780601f10610eea57610100808354040283529160200191610f15565b820191906000526020600020905b815481529060010190602001808311610ef857829003601f168201915b5050505050848360ff1681518110610f3057610f2f612ff7565b5b602002602001018190525082600b0160000160009054906101000a900460ff1690508015610f7f57600083600b01600101604051610f6e91906130a9565b908152602001604051809103902092505b8180610f8a906130cd565b92505080610e8d57604051806020016040528085815250945050505050919050565b60016000610fb9336119b9565b604051610fc69190612c8b565b908152602001604051809103902060010160006101000a81548160ff021916908315150217905550565b600060018054905090505b60008111156114b4576000806001808461101591906130f6565b8154811061102657611025612ff7565b5b9060005260206000200160405161103d91906130a9565b908152602001604051809103902090506000816003018054905090505b600081111561115d57816002018260030160018361107891906130f6565b8154811061108957611088612ff7565b5b906000526020600020016040516110a091906130a9565b90815260200160405180910390206000808201600090556001820160006110c791906120b8565b6002820160006110d791906120b8565b6003820160006110e791906120b8565b60048201600090556005820160006101000a81549073ffffffffffffffffffffffffffffffffffffffff021916905550508160030180548061112c5761112b61312a565b5b60019003818190600052602060002001600061114891906120b8565b9055808061115590613159565b91505061105a565b6000826006018054905090505b600081111561126d57826005018360060160018361118891906130f6565b8154811061119957611198612ff7565b5b906000526020600020016040516111b091906130a9565b90815260200160405180910390206000808201600090556001820160006111d791906120b8565b6002820160006111e791906120b8565b6003820160006111f791906120b8565b60048201600090556005820160006101000a81549073ffffffffffffffffffffffffffffffffffffffff021916905550508260060180548061123c5761123b61312a565b5b60019003818190600052602060002001600061125891906120b8565b9055808061126590613159565b91505061116a565b6000836009018054905090505b600082111561137d57836005018460090160018361129891906130f6565b815481106112a9576112a8612ff7565b5b906000526020600020016040516112c091906130a9565b90815260200160405180910390206000808201600090556001820160006112e791906120b8565b6002820160006112f791906120b8565b60038201600061130791906120b8565b60048201600090556005820160006101000a81549073ffffffffffffffffffffffffffffffffffffffff021916905550508360090180548061134c5761134b61312a565b5b60019003818190600052602060002001600061136891906120b8565b9055808061137590613159565b91505061127a565b60006001808761138d91906130f6565b8154811061139e5761139d612ff7565b5b906000526020600020016040516113b591906130a9565b9081526020016040518091039020600080820160006113d491906120b8565b6001820160006101000a81549060ff02191690556003820160006113f891906120f8565b600482016000905560068201600061141091906120f8565b600782016000905560098201600061142891906120f8565b600a820160009055600b8201600080820160006101000a81549060ff021916905560018201600061145991906120b8565b60028201600061146991906120b8565b50505050600180548061147f5761147e61312a565b5b60019003818190600052602060002001600061149b91906120b8565b905584806114a890613159565b95505050505050610ffb565b50565b6114bf612038565b60008383600090603d926114d59392919061318c565b8080601f016020809104026020016040519081016040528093929190818152602001838380828437600081840152601f19601f8201169050808301925050505050505090506000808260405161152b9190612c8b565b9081526020016040518091039020905080600201858560405161154f9291906131ec565b90815260200160405180910390206040518060c00160405290816000820154815260200160018201805461158290612cd1565b80601f01602080910402602001604051908101604052809291908181526020018280546115ae90612cd1565b80156115fb5780601f106115d0576101008083540402835291602001916115fb565b820191906000526020600020905b8154815290600101906020018083116115de57829003601f168201915b5050505050815260200160028201805461161490612cd1565b80601f016020809104026020016040519081016040528092919081815260200182805461164090612cd1565b801561168d5780601f106116625761010080835404028352916020019161168d565b820191906000526020600020905b81548152906001019060200180831161167057829003601f168201915b505050505081526020016003820180546116a690612cd1565b80601f01602080910402602001604051908101604052809291908181526020018280546116d290612cd1565b801561171f5780601f106116f45761010080835404028352916020019161171f565b820191906000526020600020905b81548152906001019060200180831161170257829003601f168201915b50505050508152602001600482015481526020016005820160009054906101000a900473ffffffffffffffffffffffffffffffffffffffff1673ffffffffffffffffffffffffffffffffffffffff1673ffffffffffffffffffffffffffffffffffffffff16815250509250505092915050565b6060600061179f336119b9565b90506117ab8133611aad565b8091505090565b60006117bd336119b9565b905060006117ca836119b9565b9050600080836040516117dd9190612c8b565b908152602001604051809103902090506000836117fd8360070154611cf0565b60405160200161180e92919061322b565b604051602081830303815290604052905060006040518060c00160405280846007015481526020018381526020016040518060400160405280602081526020017f4563647361536563703235366b315265636f766572794d6574686f643230323081525081526020018581526020014681526020018773ffffffffffffffffffffffffffffffffffffffff1681525090508083600501836040516118b29190612c8b565b90815260200160405180910390206000820151816000015560208201518160010190816118df9190612eae565b5060408201518160020190816118f59190612eae565b50606082015181600301908161190b9190612eae565b506080820151816004015560a08201518160050160006101000a81548173ffffffffffffffffffffffffffffffffffffffff021916908373ffffffffffffffffffffffffffffffffffffffff16021790555090505082600601829080600181540180825580915050600190039060005260206000200160009091909190915090816119969190612eae565b508260070160008154809291906119ac90612faf565b9190505550505050505050565b60606119c446611cf0565b6119cd83611e71565b6040516020016119de9291906132aa565b6040516020818303038152906040529050919050565b60606000611a01846119b9565b9050611a0d8185611aad565b6040518060600160405280600115158152602001611a2a336119b9565b815260200184815250600082604051611a439190612c8b565b9081526020016040518091039020600b0160008201518160000160006101000a81548160ff0219169083151502179055506020820151816001019081611a899190612eae565b506040820151816002019081611a9f9190612eae565b509050508091505092915050565b600082604051602001611ac09190613312565b604051602081830303815290604052905060006040518060c00160405280600181526020018381526020016040518060400160405280602081526020017f4563647361536563703235366b315265636f766572794d6574686f643230323081525081526020018581526020014681526020018473ffffffffffffffffffffffffffffffffffffffff16815250905060008085604051611b5f9190612c8b565b9081526020016040518091039020905084816000019081611b809190612eae565b5060008160010160006101000a81548160ff021916908315150217905550818160020184604051611bb19190612c8b565b9081526020016040518091039020600082015181600001556020820151816001019081611bde9190612eae565b506040820151816002019081611bf49190612eae565b506060820151816003019081611c0a9190612eae565b506080820151816004015560a08201518160050160006101000a81548173ffffffffffffffffffffffffffffffffffffffff021916908373ffffffffffffffffffffffffffffffffffffffff1602179055509050508060030183908060018154018082558091505060019003906000526020600020016000909190919091509081611c959190612eae565b506002816004018190555060018160070181905550600181600a0181905550600185908060018154018082558091505060019003906000526020600020016000909190919091509081611ce89190612eae565b505050505050565b606060008203611d37576040518060400160405280600181526020017f30000000000000000000000000000000000000000000000000000000000000008152509050611e6c565b6000808390505b6000811115611d69578180611d5290612faf565b925050600a81611d629190613367565b9050611d3e565b60008267ffffffffffffffff811115611d8557611d846121ea565b5b6040519080825280601f01601f191660200182016040528015611db75781602001600182028036833780820191505090505b5090506000600184611dc991906130f6565b90505b6000861115611e64576000600a87611de49190613398565b9050806030611df391906133c9565b60f81b838381518110611e0957611e08612ff7565b5b60200101907effffffffffffffffffffffffffffffffffffffffffffffffffffffffffffff1916908160001a90535060008214611e4f578180611e4b90613159565b9250505b600a87611e5c9190613367565b965050611dcc565b819450505050505b919050565b606060008260601b90506000602867ffffffffffffffff811115611e9857611e976121ea565b5b6040519080825280601f01601f191660200182016040528015611eca5781602001600182028036833780820191505090505b5090506000805b601460ff16811015611fca576000848260148110611ef257611ef1612ff7565b5b1a60f81b60f81c9050611f0b60048260ff16901c611fd6565b848481518110611f1e57611f1d612ff7565b5b60200101907effffffffffffffffffffffffffffffffffffffffffffffffffffffffffffff1916908160001a905350611f59600f8216611fd6565b84600185611f6791906133fe565b81518110611f7857611f77612ff7565b5b60200101907effffffffffffffffffffffffffffffffffffffffffffffffffffffffffffff1916908160001a905350600283611fb491906133fe565b9250508080611fc290612faf565b915050611ed1565b50819350505050919050565b6000600a8260ff161015611ffb57816030611ff191906133c9565b60f81b905061201a565b600a826120089190613432565b606161201491906133c9565b60f81b90505b919050565b6040518060200160405280612032612119565b81525090565b6040518060c001604052806000815260200160608152602001606081526020016060815260200160008152602001600073ffffffffffffffffffffffffffffffffffffffff1681525090565b60405180606001604052806060815260200160608152602001606081525090565b6040518060200160405280606081525090565b5080546120c490612cd1565b6000825580601f106120d657506120f5565b601f0160209004906000526020600020908101906120f49190612157565b5b50565b50805460008255906000526020600020908101906121169190612174565b50565b6040518060c0016040528060608152602001600015158152602001606081526020016060815260200160608152602001612151612198565b81525090565b5b80821115612170576000816000905550600101612158565b5090565b5b80821115612194576000818161218b91906120b8565b50600101612175565b5090565b604051806060016040528060001515815260200160608152602001606081525090565b6000604051905090565b600080fd5b600080fd5b600080fd5b600080fd5b6000601f19601f8301169050919050565b7f4e487b7100000000000000000000000000000000000000000000000000000000600052604160045260246000fd5b612222826121d9565b810181811067ffffffffffffffff82111715612241576122406121ea565b5b80604052505050565b60006122546121bb565b90506122608282612219565b919050565b600067ffffffffffffffff8211156122805761227f6121ea565b5b612289826121d9565b9050602081019050919050565b82818337600083830152505050565b60006122b86122b384612265565b61224a565b9050828152602081018484840111156122d4576122d36121d4565b5b6122df848285612296565b509392505050565b600082601f8301126122fc576122fb6121cf565b5b813561230c8482602086016122a5565b91505092915050565b60008060006060848603121561232e5761232d6121c5565b5b600084013567ffffffffffffffff81111561234c5761234b6121ca565b5b612358868287016122e7565b935050602084013567ffffffffffffffff811115612379576123786121ca565b5b612385868287016122e7565b925050604084013567ffffffffffffffff8111156123a6576123a56121ca565b5b6123b2868287016122e7565b9150509250925092565b6000602082840312156123d2576123d16121c5565b5b600082013567ffffffffffffffff8111156123f0576123ef6121ca565b5b6123fc848285016122e7565b91505092915050565b600081519050919050565b600082825260208201905092915050565b60005b8381101561243f578082015181840152602081019050612424565b60008484015250505050565b600061245682612405565b6124608185612410565b9350612470818560208601612421565b612479816121d9565b840191505092915050565b60008115159050919050565b61249981612484565b82525050565b600081519050919050565b600082825260208201905092915050565b6000819050602082019050919050565b6000819050919050565b6124de816124cb565b82525050565b600073ffffffffffffffffffffffffffffffffffffffff82169050919050565b600061250f826124e4565b9050919050565b61251f81612504565b82525050565b600060c08301600083015161253d60008601826124d5565b5060208301518482036020860152612555828261244b565b9150506040830151848203604086015261256f828261244b565b91505060608301518482036060860152612589828261244b565b915050608083015161259e60808601826124d5565b5060a08301516125b160a0860182612516565b508091505092915050565b60006125c88383612525565b905092915050565b6000602082019050919050565b60006125e88261249f565b6125f281856124aa565b935083602082028501612604856124bb565b8060005b85811015612640578484038952815161262185826125bc565b945061262c836125d0565b925060208a01995050600181019050612608565b50829750879550505050505092915050565b600081519050919050565b600082825260208201905092915050565b6000819050602082019050919050565b6000606083016000830151848203600086015261269b828261244b565b915050602083015184820360208601526126b5828261244b565b915050604083015184820360408601526126cf828261244b565b9150508091505092915050565b60006126e8838361267e565b905092915050565b6000602082019050919050565b600061270882612652565b612712818561265d565b9350836020820285016127248561266e565b8060005b85811015612760578484038952815161274185826126dc565b945061274c836126f0565b925060208a01995050600181019050612728565b50829750879550505050505092915050565b600060608301600083015161278a6000860182612490565b50602083015184820360208601526127a2828261244b565b915050604083015184820360408601526127bc828261244b565b9150508091505092915050565b600060c08301600083015184820360008601526127e6828261244b565b91505060208301516127fb6020860182612490565b506040830151848203604086015261281382826125dd565b9150506060830151848203606086015261282d82826125dd565b9150506080830151848203608086015261284782826126fd565b91505060a083015184820360a08601526128618282612772565b9150508091505092915050565b6000602083016000830151848203600086015261288b82826127c9565b9150508091505092915050565b600060208201905081810360008301526128b2818461286e565b905092915050565b600081519050919050565b600082825260208201905092915050565b6000819050602082019050919050565b60006128f2838361244b565b905092915050565b6000602082019050919050565b6000612912826128ba565b61291c81856128c5565b93508360208202850161292e856128d6565b8060005b8581101561296a578484038952815161294b85826128e6565b9450612956836128fa565b925060208a01995050600181019050612932565b50829750879550505050505092915050565b600060208301600083015184820360008601526129998282612907565b9150508091505092915050565b600060208201905081810360008301526129c0818461297c565b905092915050565b600080fd5b600080fd5b60008083601f8401126129e8576129e76121cf565b5b8235905067ffffffffffffffff811115612a0557612a046129c8565b5b602083019150836001820283011115612a2157612a206129cd565b5b9250929050565b60008060208385031215612a3f57612a3e6121c5565b5b600083013567ffffffffffffffff811115612a5d57612a5c6121ca565b5b612a69858286016129d2565b92509250509250929050565b600060c083016000830151612a8d60008601826124d5565b5060208301518482036020860152612aa5828261244b565b91505060408301518482036040860152612abf828261244b565b91505060608301518482036060860152612ad9828261244b565b9150506080830151612aee60808601826124d5565b5060a0830151612b0160a0860182612516565b508091505092915050565b60006020820190508181036000830152612b268184612a75565b905092915050565b600082825260208201905092915050565b6000612b4a82612405565b612b548185612b2e565b9350612b64818560208601612421565b612b6d816121d9565b840191505092915050565b60006020820190508181036000830152612b928184612b3f565b905092915050565b612ba381612504565b8114612bae57600080fd5b50565b600081359050612bc081612b9a565b92915050565b600060208284031215612bdc57612bdb6121c5565b5b6000612bea84828501612bb1565b91505092915050565b60008060408385031215612c0a57612c096121c5565b5b6000612c1885828601612bb1565b925050602083013567ffffffffffffffff811115612c3957612c386121ca565b5b612c45858286016122e7565b9150509250929050565b600081905092915050565b6000612c6582612405565b612c6f8185612c4f565b9350612c7f818560208601612421565b80840191505092915050565b6000612c978284612c5a565b915081905092915050565b7f4e487b7100000000000000000000000000000000000000000000000000000000600052602260045260246000fd5b60006002820490506001821680612ce957607f821691505b602082108103612cfc57612cfb612ca2565b5b50919050565b60008190508160005260206000209050919050565b60006020601f8301049050919050565b600082821b905092915050565b600060088302612d647fffffffffffffffffffffffffffffffffffffffffffffffffffffffffffffffff82612d27565b612d6e8683612d27565b95508019841693508086168417925050509392505050565b6000819050919050565b6000612dab612da6612da1846124cb565b612d86565b6124cb565b9050919050565b6000819050919050565b612dc583612d90565b612dd9612dd182612db2565b848454612d34565b825550505050565b600090565b612dee612de1565b612df9818484612dbc565b505050565b5b81811015612e1d57612e12600082612de6565b600181019050612dff565b5050565b601f821115612e6257612e3381612d02565b612e3c84612d17565b81016020851015612e4b578190505b612e5f612e5785612d17565b830182612dfe565b50505b505050565b600082821c905092915050565b6000612e8560001984600802612e67565b1980831691505092915050565b6000612e9e8383612e74565b9150826002028217905092915050565b612eb782612405565b67ffffffffffffffff811115612ed057612ecf6121ea565b5b612eda8254612cd1565b612ee5828285612e21565b600060209050601f831160018114612f185760008415612f06578287015190505b612f108582612e92565b865550612f78565b601f198416612f2686612d02565b60005b82811015612f4e57848901518255600182019150602085019450602081019050612f29565b86831015612f6b5784890151612f67601f891682612e74565b8355505b6001600288020188555050505b505050505050565b7f4e487b7100000000000000000000000000000000000000000000000000000000600052601160045260246000fd5b6000612fba826124cb565b91507fffffffffffffffffffffffffffffffffffffffffffffffffffffffffffffffff8203612fec57612feb612f80565b5b600182019050919050565b7f4e487b7100000000000000000000000000000000000000000000000000000000600052603260045260246000fd5b6000815461303381612cd1565b61303d8186612c4f565b94506001821660008114613058576001811461306d576130a0565b60ff19831686528115158202860193506130a0565b61307685612d02565b60005b8381101561309857815481890152600182019150602081019050613079565b838801955050505b50505092915050565b60006130b58284613026565b915081905092915050565b600060ff82169050919050565b60006130d8826130c0565b915060ff82036130eb576130ea612f80565b5b600182019050919050565b6000613101826124cb565b915061310c836124cb565b925082820390508181111561312457613123612f80565b5b92915050565b7f4e487b7100000000000000000000000000000000000000000000000000000000600052603160045260246000fd5b6000613164826124cb565b91506000820361317757613176612f80565b5b600182039050919050565b600080fd5b600080fd5b600080858511156131a05761319f613182565b5b838611156131b1576131b0613187565b5b6001850283019150848603905094509492505050565b60006131d38385612c4f565b93506131e0838584612296565b82840190509392505050565b60006131f98284866131c7565b91508190509392505050565b7f236361706162696c6974792d0000000000000000000000000000000000000000815250565b60006132378285612c5a565b915061324282613205565b600c820191506132528284612c5a565b91508190509392505050565b7f6469643a7373692d636f742d6574683a00000000000000000000000000000000815250565b7f3a00000000000000000000000000000000000000000000000000000000000000815250565b60006132b58261325e565b6010820191506132c58285612c5a565b91506132d082613284565b6001820191506132e08284612c5a565b91508190509392505050565b7f236b65792d310000000000000000000000000000000000000000000000000000815250565b600061331e8284612c5a565b9150613329826132ec565b60068201915081905092915050565b7f4e487b7100000000000000000000000000000000000000000000000000000000600052601260045260246000fd5b6000613372826124cb565b915061337d836124cb565b92508261338d5761338c613338565b5b828204905092915050565b60006133a3826124cb565b91506133ae836124cb565b9250826133be576133bd613338565b5b828206905092915050565b60006133d4826130c0565b91506133df836130c0565b9250828201905060ff8111156133f8576133f7612f80565b5b92915050565b6000613409826124cb565b9150613414836124cb565b925082820190508082111561342c5761342b612f80565b5b92915050565b600061343d826130c0565b9150613448836130c0565b9250828203905060ff81111561346157613460612f80565b5b9291505056fea2646970667358221220db2aba8f19511164e81a463d16f8cf0a2f4644c750dd5112ef9f0c5170ee945a64736f6c63430008130033",
  "linkReferences": {},
  "deployedLinkReferences": {}
}