{
  "_format": "hh-sol-artifact-1",
  "contractName": "SelfSovereignIdentity",
  "sourceName": "contracts/SelfSovereignIdentity.sol",
  "abi": [
    {
      "inputs": [
        {
          "internalType": "address",
          "name": "controllerAddress",
          "type": "address"
        }
      ],
      "name": "addCapabilityDelegation",
      "outputs": [],
      "stateMutability": "nonpayable",
      "type": "function"
    },
    {
      "inputs": [
        {
          "internalType": "string",
          "name": "serviceId",
          "type": "string"
        },
        {
          "internalType": "string",
          "name": "serviceType",
          "type": "string"
        },
        {
          "internalType": "string",
          "name": "endpoint",
          "type": "string"
        }
      ],
      "name": "addService",
      "outputs": [],
      "stateMutability": "nonpayable",
      "type": "function"
    },
    {
      "inputs": [
        {
          "internalType": "address",
          "name": "addressToConvert",
          "type": "address"
        }
      ],
      "name": "addressToDid",
      "outputs": [
        {
          "internalType": "string",
          "name": "",
          "type": "string"
        }
      ],
      "stateMutability": "view",
      "type": "function"
    },
    {
      "inputs": [],
      "name": "clear",
      "outputs": [],
      "stateMutability": "nonpayable",
      "type": "function"
    },
    {
      "inputs": [
        {
          "internalType": "address",
          "name": "childAddress",
          "type": "address"
        },
        {
          "internalType": "string",
          "name": "signature",
          "type": "string"
        }
      ],
      "name": "createChildTrustedDid",
      "outputs": [
        {
          "internalType": "string",
          "name": "",
          "type": "string"
        }
      ],
      "stateMutability": "nonpayable",
      "type": "function"
    },
    {
      "inputs": [],
      "name": "createDid",
      "outputs": [
        {
          "internalType": "string",
          "name": "",
          "type": "string"
        }
      ],
      "stateMutability": "nonpayable",
      "type": "function"
    },
    {
      "inputs": [],
      "name": "deactivate",
      "outputs": [],
      "stateMutability": "nonpayable",
      "type": "function"
    },
    {
      "inputs": [
        {
          "internalType": "string",
          "name": "didUrl",
          "type": "string"
        }
      ],
      "name": "getAuthentication",
      "outputs": [
        {
          "components": [
            {
              "internalType": "uint256",
              "name": "index",
              "type": "uint256"
            },
            {
              "internalType": "string",
              "name": "id",
              "type": "string"
            },
            {
              "internalType": "string",
              "name": "methodType",
              "type": "string"
            },
            {
              "internalType": "string",
              "name": "controller",
              "type": "string"
            },
            {
              "internalType": "uint256",
              "name": "chainId",
              "type": "uint256"
            },
            {
              "internalType": "address",
              "name": "blockchainAccountId",
              "type": "address"
            }
          ],
          "internalType": "struct VerificationMethod",
          "name": "",
          "type": "tuple"
        }
      ],
      "stateMutability": "view",
      "type": "function"
    },
    {
      "inputs": [
        {
          "internalType": "string",
          "name": "did",
          "type": "string"
        }
      ],
      "name": "resolve",
      "outputs": [
        {
          "components": [
            {
              "components": [
                {
                  "internalType": "string",
                  "name": "id",
                  "type": "string"
                },
                {
                  "internalType": "bool",
                  "name": "deactivated",
                  "type": "bool"
                },
                {
                  "components": [
                    {
                      "internalType": "uint256",
                      "name": "index",
                      "type": "uint256"
                    },
                    {
                      "internalType": "string",
                      "name": "id",
                      "type": "string"
                    },
                    {
                      "internalType": "string",
                      "name": "methodType",
                      "type": "string"
                    },
                    {
                      "internalType": "string",
                      "name": "controller",
                      "type": "string"
                    },
                    {
                      "internalType": "uint256",
                      "name": "chainId",
                      "type": "uint256"
                    },
                    {
                      "internalType": "address",
                      "name": "blockchainAccountId",
                      "type": "address"
                    }
                  ],
                  "internalType": "struct VerificationMethod[]",
                  "name": "authentication",
                  "type": "tuple[]"
                },
                {
                  "components": [
                    {
                      "internalType": "uint256",
                      "name": "index",
                      "type": "uint256"
                    },
                    {
                      "internalType": "string",
                      "name": "id",
                      "type": "string"
                    },
                    {
                      "internalType": "string",
                      "name": "methodType",
                      "type": "string"
                    },
                    {
                      "internalType": "string",
                      "name": "controller",
                      "type": "string"
                    },
                    {
                      "internalType": "uint256",
                      "name": "chainId",
                      "type": "uint256"
                    },
                    {
                      "internalType": "address",
                      "name": "blockchainAccountId",
                      "type": "address"
                    }
                  ],
                  "internalType": "struct VerificationMethod[]",
                  "name": "capabilityDelegation",
                  "type": "tuple[]"
                },
                {
                  "components": [
                    {
                      "internalType": "string",
                      "name": "id",
                      "type": "string"
                    },
                    {
                      "internalType": "string",
                      "name": "serviceType",
                      "type": "string"
                    },
                    {
                      "internalType": "string",
                      "name": "endpoint",
                      "type": "string"
                    }
                  ],
                  "internalType": "struct Service[]",
                  "name": "service",
                  "type": "tuple[]"
                },
                {
                  "components": [
                    {
                      "internalType": "bool",
                      "name": "valid",
                      "type": "bool"
                    },
                    {
                      "internalType": "string",
                      "name": "parentId",
                      "type": "string"
                    },
                    {
                      "internalType": "string",
                      "name": "signature",
                      "type": "string"
                    }
                  ],
                  "internalType": "struct Parent",
                  "name": "parent",
                  "type": "tuple"
                }
              ],
              "internalType": "struct DidDocument",
              "name": "didDocument",
              "type": "tuple"
            }
          ],
          "internalType": "struct ResolutionResult",
          "name": "",
          "type": "tuple"
        }
      ],
      "stateMutability": "view",
      "type": "function"
    },
    {
      "inputs": [
        {
          "internalType": "string",
          "name": "did",
          "type": "string"
        }
      ],
      "name": "resolveChain",
      "outputs": [
        {
          "components": [
            {
              "internalType": "string[]",
              "name": "userDids",
              "type": "string[]"
            }
          ],
          "internalType": "struct ChainResolutionResult",
          "name": "",
          "type": "tuple"
        }
      ],
      "stateMutability": "view",
      "type": "function"
    }
  ],
  "bytecode": "0x608060405234801561001057600080fd5b506126f2806100206000396000f3fe608060405234801561001057600080fd5b506004361061009e5760003560e01c80639d57197c116100665780639d57197c14610111578063a520f4af14610131578063bdcfeb6414610146578063cae27f8f14610159578063ce23b7441461016c57600080fd5b80633f9b4946146100a3578063461a4478146100b85780634f5201fd146100e157806351b42b001461010157806352efea6e14610109575b600080fd5b6100b66100b1366004611dd6565b61017f565b005b6100cb6100c6366004611e5e565b61025e565b6040516100d89190612001565b60405180910390f35b6100f46100ef366004611e5e565b610cf7565b6040516100d89190612130565b6100b6610e65565b6100b6610ea4565b61012461011f36600461219c565b6112aa565b6040516100d8919061220e565b61013961152e565b6040516100d89190612228565b6100b6610154366004612252565b61154c565b610139610167366004612252565b6116f8565b61013961017a36600461226d565b611733565b60008061018b336116f8565b60405161019891906122bb565b9081526020016040518091039020905060405180606001604052808581526020018481526020018381525081600801856040516101d591906122bb565b908152604051908190036020019020815181906101f2908261235c565b5060208201516001820190610207908261235c565b506040820151600282019061021c908261235c565b5050506009810180546001810182556000918252602090912001610240858261235c565b50600a8101805490600061025383612432565b919050555050505050565b610266611bf8565b6000808360405161027791906122bb565b908152602001604051809103902090506000816003018054905067ffffffffffffffff8111156102a9576102a9611d33565b6040519080825280602002602001820160405280156102e257816020015b6102cf611c10565b8152602001906001900390816102c75790505b50600683015490915060009067ffffffffffffffff81111561030657610306611d33565b60405190808252806020026020018201604052801561033f57816020015b61032c611c10565b8152602001906001900390816103245790505b50600984015490915060009067ffffffffffffffff81111561036357610363611d33565b6040519080825280602002602001820160405280156103b857816020015b6103a560405180606001604052806060815260200160608152602001606081525090565b8152602001906001900390816103815790505b50905060005b835181101561062057846002018560030182815481106103e0576103e061244b565b906000526020600020016040516103f79190612461565b90815260200160405180910390206040518060c00160405290816000820154815260200160018201805461042a906122d7565b80601f0160208091040260200160405190810160405280929190818152602001828054610456906122d7565b80156104a35780601f10610478576101008083540402835291602001916104a3565b820191906000526020600020905b81548152906001019060200180831161048657829003601f168201915b505050505081526020016002820180546104bc906122d7565b80601f01602080910402602001604051908101604052809291908181526020018280546104e8906122d7565b80156105355780601f1061050a57610100808354040283529160200191610535565b820191906000526020600020905b81548152906001019060200180831161051857829003601f168201915b5050505050815260200160038201805461054e906122d7565b80601f016020809104026020016040519081016040528092919081815260200182805461057a906122d7565b80156105c75780601f1061059c576101008083540402835291602001916105c7565b820191906000526020600020905b8154815290600101906020018083116105aa57829003601f168201915b5050509183525050600482015460208201526005909101546001600160a01b031660409091015284518590839081106106025761060261244b565b6020026020010181905250808061061890612432565b9150506103be565b5060005b825181101561088657846005018560060182815481106106465761064661244b565b9060005260206000200160405161065d9190612461565b90815260200160405180910390206040518060c001604052908160008201548152602001600182018054610690906122d7565b80601f01602080910402602001604051908101604052809291908181526020018280546106bc906122d7565b80156107095780601f106106de57610100808354040283529160200191610709565b820191906000526020600020905b8154815290600101906020018083116106ec57829003601f168201915b50505050508152602001600282018054610722906122d7565b80601f016020809104026020016040519081016040528092919081815260200182805461074e906122d7565b801561079b5780601f106107705761010080835404028352916020019161079b565b820191906000526020600020905b81548152906001019060200180831161077e57829003601f168201915b505050505081526020016003820180546107b4906122d7565b80601f01602080910402602001604051908101604052809291908181526020018280546107e0906122d7565b801561082d5780601f106108025761010080835404028352916020019161082d565b820191906000526020600020905b81548152906001019060200180831161081057829003601f168201915b5050509183525050600482015460208201526005909101546001600160a01b031660409091015283518490839081106108685761086861244b565b6020026020010181905250808061087e90612432565b915050610624565b5060005b8151811015610ac257846008018560090182815481106108ac576108ac61244b565b906000526020600020016040516108c39190612461565b90815260200160405180910390206040518060600160405290816000820180546108ec906122d7565b80601f0160208091040260200160405190810160405280929190818152602001828054610918906122d7565b80156109655780601f1061093a57610100808354040283529160200191610965565b820191906000526020600020905b81548152906001019060200180831161094857829003601f168201915b5050505050815260200160018201805461097e906122d7565b80601f01602080910402602001604051908101604052809291908181526020018280546109aa906122d7565b80156109f75780601f106109cc576101008083540402835291602001916109f7565b820191906000526020600020905b8154815290600101906020018083116109da57829003601f168201915b50505050508152602001600282018054610a10906122d7565b80601f0160208091040260200160405190810160405280929190818152602001828054610a3c906122d7565b8015610a895780601f10610a5e57610100808354040283529160200191610a89565b820191906000526020600020905b815481529060010190602001808311610a6c57829003601f168201915b505050505081525050828281518110610aa457610aa461244b565b60200260200101819052508080610aba90612432565b91505061088a565b5060006040518060c00160405280866000018054610adf906122d7565b80601f0160208091040260200160405190810160405280929190818152602001828054610b0b906122d7565b8015610b585780601f10610b2d57610100808354040283529160200191610b58565b820191906000526020600020905b815481529060010190602001808311610b3b57829003601f168201915b505050505081526020018660010160009054906101000a900460ff161515815260200185815260200184815260200183815260200186600b016040518060600160405290816000820160009054906101000a900460ff16151515158152602001600182018054610bc7906122d7565b80601f0160208091040260200160405190810160405280929190818152602001828054610bf3906122d7565b8015610c405780601f10610c1557610100808354040283529160200191610c40565b820191906000526020600020905b815481529060010190602001808311610c2357829003601f168201915b50505050508152602001600282018054610c59906122d7565b80601f0160208091040260200160405190810160405280929190818152602001828054610c85906122d7565b8015610cd25780601f10610ca757610100808354040283529160200191610cd2565b820191906000526020600020905b815481529060010190602001808311610cb557829003601f168201915b5050509190925250505090526040805160208101909152908152979650505050505050565b60408051602081018252606081528151600a8082526101608201909352909160009190816020015b6060815260200190600190039081610d1f57905050905060008084604051610d4791906122bb565b9081526040519081900360200190209050600060015b82548390610d6a906122d7565b80601f0160208091040260200160405190810160405280929190818152602001828054610d96906122d7565b8015610de35780601f10610db857610100808354040283529160200191610de3565b820191906000526020600020905b815481529060010190602001808311610dc657829003601f168201915b5050505050848360ff1681518110610dfd57610dfd61244b565b602090810291909101015250600b82015460ff168015610e3c57604051600090610e2b90600c860190612461565b908152602001604051809103902092505b81610e46816124d7565b92505080610d5d57505060408051602081019091529182525092915050565b60016000610e72336116f8565b604051610e7f91906122bb565b908152604051908190036020019020600101805491151560ff19909216919091179055565b6001545b80156112a7576000806001610ebd81856124f6565b81548110610ecd57610ecd61244b565b90600052602060002001604051610ee49190612461565b90815260405190819003602001902060038101549091505b8015610fd5576002820160038301610f156001846124f6565b81548110610f2557610f2561244b565b90600052602060002001604051610f3c9190612461565b9081526040519081900360200190206000808255610f5d6001830182611c4f565b610f6b600283016000611c4f565b610f79600383016000611c4f565b506000600482015560050180546001600160a01b031916905560038201805480610fa557610fa5612509565b600190038181906000526020600020016000610fc19190611c4f565b905580610fcd8161251f565b915050610efc565b60068201545b80156110b4576005830160068401610ff46001846124f6565b815481106110045761100461244b565b9060005260206000200160405161101b9190612461565b908152604051908190036020019020600080825561103c6001830182611c4f565b61104a600283016000611c4f565b611058600383016000611c4f565b506000600482015560050180546001600160a01b03191690556006830180548061108457611084612509565b6001900381819060005260206000200160006110a09190611c4f565b9055806110ac8161251f565b915050610fdb565b60098301545b81156111935760058401600985016110d36001846124f6565b815481106110e3576110e361244b565b906000526020600020016040516110fa9190612461565b908152604051908190036020019020600080825561111b6001830182611c4f565b611129600283016000611c4f565b611137600383016000611c4f565b506000600482015560050180546001600160a01b03191690556009840180548061116357611163612509565b60019003818190600052602060002001600061117f9190611c4f565b90558061118b8161251f565b9150506110ba565b600060016111a181886124f6565b815481106111b1576111b161244b565b906000526020600020016040516111c89190612461565b90815260405190819003602001902060006111e38282611c4f565b60018201805460ff191690556111fd600383016000611c89565b60048201600090556006820160006112159190611c89565b600782016000905560098201600061122d9190611c89565b6000600a8301819055600b8301805460ff1916815590611250600c850182611c4f565b61125e600283016000611c4f565b50505050600180548061127357611273612509565b60019003818190600052602060002001600061128f9190611c4f565b90558461129b8161251f565b95505050505050610ea8565b50565b6112b2611c10565b60006112c1603d828587612536565b8080601f01602080910402602001604051908101604052809392919081815260200183838082843760009201829052506040519495509384935061130892508591506122bb565b9081526020016040518091039020905080600201858560405161132c929190612560565b90815260200160405180910390206040518060c00160405290816000820154815260200160018201805461135f906122d7565b80601f016020809104026020016040519081016040528092919081815260200182805461138b906122d7565b80156113d85780601f106113ad576101008083540402835291602001916113d8565b820191906000526020600020905b8154815290600101906020018083116113bb57829003601f168201915b505050505081526020016002820180546113f1906122d7565b80601f016020809104026020016040519081016040528092919081815260200182805461141d906122d7565b801561146a5780601f1061143f5761010080835404028352916020019161146a565b820191906000526020600020905b81548152906001019060200180831161144d57829003601f168201915b50505050508152602001600382018054611483906122d7565b80601f01602080910402602001604051908101604052809291908181526020018280546114af906122d7565b80156114fc5780601f106114d1576101008083540402835291602001916114fc565b820191906000526020600020905b8154815290600101906020018083116114df57829003601f168201915b5050509183525050600482015460208201526005909101546001600160a01b0316604090910152925050505b92915050565b6060600061153b336116f8565b905061154781336117db565b919050565b6000611557336116f8565b90506000611564836116f8565b90506000808360405161157791906122bb565b9081526020016040518091039020905060008361159783600701546119b0565b6040516020016115a8929190612570565b60408051601f1981840301815260c083018252600785015483526020838101829052825180840184528181527f4563647361536563703235366b315265636f766572794d6574686f64323032309181019190915283830152606083018690524660808401526001600160a01b03881660a08401529051909250819060058501906116339085906122bb565b908152604051602091819003820190208251815590820151600182019061165a908261235c565b506040820151600282019061166f908261235c565b5060608201516003820190611684908261235c565b506080820151600482015560a090910151600590910180546001600160a01b0319166001600160a01b0390921691909117905560068301805460018101825560009182526020909120016116d8838261235c565b506007830180549060006116eb83612432565b9190505550505050505050565b6060611703466119b0565b61170c83611ad5565b60405160200161171d9291906125b7565b6040516020818303038152906040529050919050565b60606000611740846116f8565b905061174c81856117db565b6040518060600160405280600115158152602001611769336116f8565b81526020018481525060008260405161178291906122bb565b908152604051602091819003820190208251600b8201805460ff191691151591909117815591830151600c909101906117bb908261235c565b50604082015160028201906117d0908261235c565b509195945050505050565b6000826040516020016117ee919061260f565b60408051601f1981840301815260c083018252600183526020838101829052825180840184528181527f4563647361536563703235366b315265636f766572794d6574686f64323032309181019190915283830152606083018690524660808401526001600160a01b03851660a0840152905190925060009081906118749087906122bb565b908152604051908190036020019020905080611890868261235c565b5060018101805460ff19169055604051829060028301906118b29086906122bb565b90815260405160209181900382019020825181559082015160018201906118d9908261235c565b50604082015160028201906118ee908261235c565b5060608201516003820190611903908261235c565b506080820151600482015560a090910151600590910180546001600160a01b0319166001600160a01b039092169190911790556003810180546001810182556000918252602090912001611957848261235c565b5060026004820155600160078201819055600a8201819055805480820182556000919091527fb10e2d527612073b26eecdfd717e6a320cf44b4afac2b0732d9fcbe2b7fa0cf6016119a8868261235c565b505050505050565b6060816000036119d75750506040805180820190915260018152600360fc1b602082015290565b6000825b8015611a0157816119eb81612432565b92506119fa9050600a8261264f565b90506119db565b60008267ffffffffffffffff811115611a1c57611a1c611d33565b6040519080825280601f01601f191660200182016040528015611a46576020820181803683370190505b5090506000611a566001856124f6565b90505b8515611acc576000611a6c600a88612663565b9050611a79816030612677565b60f81b838381518110611a8e57611a8e61244b565b60200101906001600160f81b031916908160001a9053508115611ab95781611ab58161251f565b9250505b611ac4600a8861264f565b965050611a59565b50949350505050565b604080516028808252606082810190935283831b916000916020820181803683370190505090506000805b6014811015611bb6576000848260148110611b1d57611b1d61244b565b1a9050611b2d600482901c611bc0565b848481518110611b3f57611b3f61244b565b60200101906001600160f81b031916908160001a905350611b6281600f16611bc0565b84611b6e856001612690565b81518110611b7e57611b7e61244b565b60200101906001600160f81b031916908160001a905350611ba0600284612690565b9250508080611bae90612432565b915050611b00565b5090949350505050565b6000600a8260ff161015611be257611bd9826030612677565b60f81b92915050565b611bed600a836126a3565b611bd9906061612677565b6040518060200160405280611c0b611ca7565b905290565b6040518060c00160405280600081526020016060815260200160608152602001606081526020016000815260200160006001600160a01b031681525090565b508054611c5b906122d7565b6000825580601f10611c6b575050565b601f0160209004906000526020600020908101906112a79190611cfd565b50805460008255906000526020600020908101906112a79190611d16565b6040518060c0016040528060608152602001600015158152602001606081526020016060815260200160608152602001611c0b604051806060016040528060001515815260200160608152602001606081525090565b5b80821115611d125760008155600101611cfe565b5090565b80821115611d12576000611d2a8282611c4f565b50600101611d16565b634e487b7160e01b600052604160045260246000fd5b600082601f830112611d5a57600080fd5b813567ffffffffffffffff80821115611d7557611d75611d33565b604051601f8301601f19908116603f01168101908282118183101715611d9d57611d9d611d33565b81604052838152866020858801011115611db657600080fd5b836020870160208301376000602085830101528094505050505092915050565b600080600060608486031215611deb57600080fd5b833567ffffffffffffffff80821115611e0357600080fd5b611e0f87838801611d49565b94506020860135915080821115611e2557600080fd5b611e3187838801611d49565b93506040860135915080821115611e4757600080fd5b50611e5486828701611d49565b9150509250925092565b600060208284031215611e7057600080fd5b813567ffffffffffffffff811115611e8757600080fd5b611e9384828501611d49565b949350505050565b60005b83811015611eb6578181015183820152602001611e9e565b50506000910152565b60008151808452611ed7816020860160208601611e9b565b601f01601f19169290920160200192915050565b805182526000602082015160c06020850152611f0a60c0850182611ebf565b905060408301518482036040860152611f238282611ebf565b91505060608301518482036060860152611f3d8282611ebf565b6080858101519087015260a0948501516001600160a01b03169490950193909352509192915050565b600082825180855260208086019550808260051b84010181860160005b84811015611fb157601f19868403018952611f9f838351611eeb565b98840198925090830190600101611f83565b5090979650505050505050565b8051151582526000602082015160606020850152611fdf6060850182611ebf565b905060408301518482036040860152611ff88282611ebf565b95945050505050565b60006020808352604084518283860152805160c083870152612027610100870182611ebf565b905083820151606081151581890152848401519150603f19808985030160808a01526120538484611f66565b9350818501519250808985030160a08a015261206f8484611f66565b60808601518a8203830160c08c015280518083529195508801935087850190600581901b8601890160005b8281101561210357878203601f19018452865180518784526120be88850182611ebf565b90508c8201518482038e8601526120d58282611ebf565b9150508b82015191508381038c8501526120ef8183611ebf565b988d0198958d01959350505060010161209a565b5060a08801519950838c82030160e08d015261211f818b611fbe565b9d9c50505050505050505050505050565b60006020808352604083018451828386015281815180845260608701915060608160051b8801019350848301925060005b8181101561218f57605f1988860301835261217d858551611ebf565b94509285019291850191600101612161565b5092979650505050505050565b600080602083850312156121af57600080fd5b823567ffffffffffffffff808211156121c757600080fd5b818501915085601f8301126121db57600080fd5b8135818111156121ea57600080fd5b8660208285010111156121fc57600080fd5b60209290920196919550909350505050565b6020815260006122216020830184611eeb565b9392505050565b6020815260006122216020830184611ebf565b80356001600160a01b038116811461154757600080fd5b60006020828403121561226457600080fd5b6122218261223b565b6000806040838503121561228057600080fd5b6122898361223b565b9150602083013567ffffffffffffffff8111156122a557600080fd5b6122b185828601611d49565b9150509250929050565b600082516122cd818460208701611e9b565b9190910192915050565b600181811c908216806122eb57607f821691505b60208210810361230b57634e487b7160e01b600052602260045260246000fd5b50919050565b601f82111561235757600081815260208120601f850160051c810160208610156123385750805b601f850160051c820191505b818110156119a857828155600101612344565b505050565b815167ffffffffffffffff81111561237657612376611d33565b61238a8161238484546122d7565b84612311565b602080601f8311600181146123bf57600084156123a75750858301515b600019600386901b1c1916600185901b1785556119a8565b600085815260208120601f198616915b828110156123ee578886015182559484019460019091019084016123cf565b508582101561240c5787850151600019600388901b60f8161c191681555b5050505050600190811b01905550565b634e487b7160e01b600052601160045260246000fd5b6000600182016124445761244461241c565b5060010190565b634e487b7160e01b600052603260045260246000fd5b600080835461246f816122d7565b60018281168015612487576001811461249c576124cb565b60ff19841687528215158302870194506124cb565b8760005260208060002060005b858110156124c25781548a8201529084019082016124a9565b50505082870194505b50929695505050505050565b600060ff821660ff81036124ed576124ed61241c565b60010192915050565b818103818111156115285761152861241c565b634e487b7160e01b600052603160045260246000fd5b60008161252e5761252e61241c565b506000190190565b6000808585111561254657600080fd5b8386111561255357600080fd5b5050820193919092039150565b8183823760009101908152919050565b60008351612582818460208801611e9b565b6b236361706162696c6974792d60a01b90830190815283516125ab81600c840160208801611e9b565b01600c01949350505050565b6f3234b21d39b9b496b1b7ba16b2ba341d60811b8152600083516125e2816010850160208801611e9b565b601d60f91b6010918401918201528351612603816011840160208801611e9b565b01601101949350505050565b60008251612621818460208701611e9b565b65236b65792d3160d01b920191825250600601919050565b634e487b7160e01b600052601260045260246000fd5b60008261265e5761265e612639565b500490565b60008261267257612672612639565b500690565b60ff81811683821601908111156115285761152861241c565b808201808211156115285761152861241c565b60ff82811682821603908111156115285761152861241c56fea264697066735822122050732df84a562f6bfb1e1a4aa54d16fbc610a4174f182781215e69a82de7a24764736f6c63430008130033",
  "linkReferences": {},
  "deployedLinkReferences": {}
}